{
  "contractName": "HotPotato",
  "abi": [
    {
      "constant": true,
      "inputs": [
        {
          "name": "",
          "type": "address"
        }
      ],
      "name": "playerNames",
      "outputs": [
        {
          "name": "",
          "type": "string"
        }
      ],
      "payable": false,
      "stateMutability": "view",
      "type": "function"
    },
    {
      "constant": true,
      "inputs": [],
      "name": "gameEndAt",
      "outputs": [
        {
          "name": "",
          "type": "uint256"
        }
      ],
      "payable": false,
      "stateMutability": "view",
      "type": "function"
    },
    {
      "constant": true,
      "inputs": [],
      "name": "gameStarted",
      "outputs": [
        {
          "name": "",
          "type": "bool"
        }
      ],
      "payable": false,
      "stateMutability": "view",
      "type": "function"
    },
    {
      "constant": false,
      "inputs": [],
      "name": "renounceOwnership",
      "outputs": [],
      "payable": false,
      "stateMutability": "nonpayable",
      "type": "function"
    },
    {
      "constant": true,
      "inputs": [],
      "name": "owner",
      "outputs": [
        {
          "name": "",
          "type": "address"
        }
      ],
      "payable": false,
      "stateMutability": "view",
      "type": "function"
    },
    {
      "constant": true,
      "inputs": [],
      "name": "isOwner",
      "outputs": [
        {
          "name": "",
          "type": "bool"
        }
      ],
      "payable": false,
      "stateMutability": "view",
      "type": "function"
    },
    {
      "constant": true,
      "inputs": [
        {
          "name": "",
          "type": "string"
        }
      ],
      "name": "players",
      "outputs": [
        {
          "name": "",
          "type": "address"
        }
      ],
      "payable": false,
      "stateMutability": "view",
      "type": "function"
    },
    {
      "constant": true,
      "inputs": [],
      "name": "holder",
      "outputs": [
        {
          "name": "",
          "type": "string"
        }
      ],
      "payable": false,
      "stateMutability": "view",
      "type": "function"
    },
    {
      "constant": false,
      "inputs": [
        {
          "name": "newOwner",
          "type": "address"
        }
      ],
      "name": "transferOwnership",
      "outputs": [],
      "payable": false,
      "stateMutability": "nonpayable",
      "type": "function"
    },
    {
      "inputs": [
        {
          "name": "playerName",
          "type": "string"
        }
      ],
      "payable": false,
      "stateMutability": "nonpayable",
      "type": "constructor"
    },
    {
      "anonymous": false,
      "inputs": [
        {
          "indexed": false,
          "name": "endAt",
          "type": "uint256"
        }
      ],
      "name": "GameStarted",
      "type": "event"
    },
    {
      "anonymous": false,
      "inputs": [
        {
          "indexed": false,
          "name": "playerName",
          "type": "string"
        },
        {
          "indexed": false,
          "name": "playerAddress",
          "type": "address"
        }
      ],
      "name": "PlayerRegistered",
      "type": "event"
    },
    {
      "anonymous": false,
      "inputs": [
        {
          "indexed": false,
          "name": "playerName",
          "type": "string"
        },
        {
          "indexed": false,
          "name": "value",
          "type": "uint256"
        }
      ],
      "name": "PotatoThrown",
      "type": "event"
    },
    {
      "anonymous": false,
      "inputs": [
        {
          "indexed": false,
          "name": "playerName",
          "type": "string"
        },
        {
          "indexed": false,
          "name": "value",
          "type": "uint256"
        }
      ],
      "name": "WinnerClaimedPrize",
      "type": "event"
    },
    {
      "anonymous": false,
      "inputs": [
        {
          "indexed": true,
          "name": "previousOwner",
          "type": "address"
        },
        {
          "indexed": true,
          "name": "newOwner",
          "type": "address"
        }
      ],
      "name": "OwnershipTransferred",
      "type": "event"
    },
    {
      "constant": false,
      "inputs": [
        {
          "name": "_endAt",
          "type": "uint256"
        }
      ],
      "name": "start",
      "outputs": [],
      "payable": false,
      "stateMutability": "nonpayable",
      "type": "function"
    },
    {
      "constant": false,
      "inputs": [
        {
          "name": "_playerName",
          "type": "string"
        }
      ],
      "name": "registerPlayer",
      "outputs": [],
      "payable": false,
      "stateMutability": "nonpayable",
      "type": "function"
    },
    {
      "constant": false,
      "inputs": [
        {
          "name": "_recipientName",
          "type": "string"
        }
      ],
      "name": "throwPotato",
      "outputs": [],
      "payable": true,
      "stateMutability": "payable",
      "type": "function"
    },
    {
      "constant": true,
      "inputs": [],
      "name": "gameOver",
      "outputs": [
        {
          "name": "",
          "type": "bool"
        }
      ],
      "payable": false,
      "stateMutability": "view",
      "type": "function"
    },
    {
      "constant": false,
      "inputs": [],
      "name": "claim",
      "outputs": [],
      "payable": false,
      "stateMutability": "nonpayable",
      "type": "function"
    },
    {
      "constant": false,
      "inputs": [],
      "name": "stop",
      "outputs": [],
      "payable": false,
      "stateMutability": "nonpayable",
      "type": "function"
    },
    {
      "constant": false,
      "inputs": [],
      "name": "kaboom",
      "outputs": [],
      "payable": false,
      "stateMutability": "nonpayable",
      "type": "function"
    },
    {
      "constant": true,
      "inputs": [],
      "name": "fenceHeight",
      "outputs": [
        {
          "name": "",
          "type": "uint256"
        }
      ],
      "payable": false,
      "stateMutability": "view",
      "type": "function"
    }
  ],
  "bytecode": "0x60806040523480156200001157600080fd5b506040516200281738038062002817833981018060405260208110156200003757600080fd5b8101908080516401000000008111156200005057600080fd5b828101905060208101848111156200006757600080fd5b81518560018202830111640100000000821117156200008557600080fd5b5050929190505050336000806101000a81548173ffffffffffffffffffffffffffffffffffffffff021916908373ffffffffffffffffffffffffffffffffffffffff1602179055506000809054906101000a900473ffffffffffffffffffffffffffffffffffffffff1673ffffffffffffffffffffffffffffffffffffffff16600073ffffffffffffffffffffffffffffffffffffffff167f8be0079c531659141344cd1fd0a4f28419497f9722a3daafe3b4186f6b6457e060405160405180910390a36200015a816200017a60201b60201c565b806001908051906020019062000172929190620006df565b50506200078e565b600360009054906101000a900460ff161580620001a45750620001a2620006ba60201b60201c565b155b62000217576040517f08c379a000000000000000000000000000000000000000000000000000000000815260040180806020018281038252600f8152602001807f47616d652068617320656e6465642e000000000000000000000000000000000081525060200191505060405180910390fd5b600073ffffffffffffffffffffffffffffffffffffffff166006826040518082805190602001908083835b6020831062000267578051825260208201915060208101905060208303925062000242565b6001836020036101000a038019825116818451168082178552505050505050905001915050908152602001604051809103902060009054906101000a900473ffffffffffffffffffffffffffffffffffffffff1673ffffffffffffffffffffffffffffffffffffffff161462000329576040517f08c379a0000000000000000000000000000000000000000000000000000000008152600401808060200182810382526022815260200180620027f56022913960400191505060405180910390fd5b60608190506000815111620003a6576040517f08c379a00000000000000000000000000000000000000000000000000000000081526004018080602001828103825260208152602001807f52656769737465726564206e616d652063616e6e6f7420626520626c616e6b2e81525060200191505060405180910390fd5b6060600760003373ffffffffffffffffffffffffffffffffffffffff1673ffffffffffffffffffffffffffffffffffffffff1681526020019081526020016000208054600181600116156101000203166002900480601f0160208091040260200160405190810160405280929190818152602001828054600181600116156101000203166002900480156200047f5780601f1062000453576101008083540402835291602001916200047f565b820191906000526020600020905b8154815290600101906020018083116200046157829003601f168201915b505050505090506000815114620004e2576040517f08c379a0000000000000000000000000000000000000000000000000000000008152600401808060200182810382526026815260200180620027cf6026913960400191505060405180910390fd5b336006846040518082805190602001908083835b602083106200051b5780518252602082019150602081019050602083039250620004f6565b6001836020036101000a038019825116818451168082178552505050505050905001915050908152602001604051809103902060006101000a81548173ffffffffffffffffffffffffffffffffffffffff021916908373ffffffffffffffffffffffffffffffffffffffff16021790555082600760003373ffffffffffffffffffffffffffffffffffffffff1673ffffffffffffffffffffffffffffffffffffffff1681526020019081526020016000209080519060200190620005e1929190620006df565b507f8cf6c9dc5b0de75cf4570c20b0f30845b692c7e05dfaecbb82096af4e2c2317d833360405180806020018373ffffffffffffffffffffffffffffffffffffffff1673ffffffffffffffffffffffffffffffffffffffff168152602001828103825284818151815260200191508051906020019080838360005b83811015620006795780820151818401526020810190506200065c565b50505050905090810190601f168015620006a75780820380516001836020036101000a031916815260200191505b50935050505060405180910390a1505050565b6000600360009054906101000a900460ff168015620006da575060025442115b905090565b828054600181600116156101000203166002900490600052602060002090601f016020900481019282601f106200072257805160ff191683800117855562000753565b8280016001018555821562000753579182015b828111156200075257825182559160200191906001019062000735565b5b50905062000762919062000766565b5090565b6200078b91905b80821115620007875760008160009055506001016200076d565b5090565b90565b612031806200079e6000396000f3fe6080604052600436106100fe5760003560e01c80637a4c33a611610095578063a1925d0211610064578063a1925d021461042a578063b3446f8514610532578063bdb337d1146105fa578063e534155d14610629578063f2fde38b146106b9576100fe565b80637a4c33a6146103525780638da5cb5b146103695780638f32d59b146103c057806395805dad146103ef576100fe565b80634e71d92d116100d15780634e71d92d146102ca5780635e123ce4146102e1578063715018a6146103105780637520624414610327576100fe565b806307da68f5146101035780631b47f6551461011a57806343b978b3146101d5578063496c342f1461029f575b600080fd5b34801561010f57600080fd5b5061011861070a565b005b6101d36004803603602081101561013057600080fd5b810190808035906020019064010000000081111561014d57600080fd5b82018360208201111561015f57600080fd5b8035906020019184600183028401116401000000008311171561018157600080fd5b91908080601f016020809104026020016040519081016040528093929190818152602001838380828437600081840152601f19601f82011690508083019250505050505050919291929050505061078e565b005b3480156101e157600080fd5b50610224600480360360208110156101f857600080fd5b81019080803573ffffffffffffffffffffffffffffffffffffffff169060200190929190505050610cb5565b6040518080602001828103825283818151815260200191508051906020019080838360005b83811015610264578082015181840152602081019050610249565b50505050905090810190601f1680156102915780820380516001836020036101000a031916815260200191505b509250505060405180910390f35b3480156102ab57600080fd5b506102b4610d65565b6040518082815260200191505060405180910390f35b3480156102d657600080fd5b506102df610d6b565b005b3480156102ed57600080fd5b506102f6611197565b604051808215151515815260200191505060405180910390f35b34801561031c57600080fd5b506103256111aa565b005b34801561033357600080fd5b5061033c6112e3565b6040518082815260200191505060405180910390f35b34801561035e57600080fd5b50610367611302565b005b34801561037557600080fd5b5061037e611395565b604051808273ffffffffffffffffffffffffffffffffffffffff1673ffffffffffffffffffffffffffffffffffffffff16815260200191505060405180910390f35b3480156103cc57600080fd5b506103d56113be565b604051808215151515815260200191505060405180910390f35b3480156103fb57600080fd5b506104286004803603602081101561041257600080fd5b8101908080359060200190929190505050611415565b005b34801561043657600080fd5b506104f06004803603602081101561044d57600080fd5b810190808035906020019064010000000081111561046a57600080fd5b82018360208201111561047c57600080fd5b8035906020019184600183028401116401000000008311171561049e57600080fd5b91908080601f016020809104026020016040519081016040528093929190818152602001838380828437600081840152601f19601f8201169050808301925050505050505091929192905050506115c6565b604051808273ffffffffffffffffffffffffffffffffffffffff1673ffffffffffffffffffffffffffffffffffffffff16815260200191505060405180910390f35b34801561053e57600080fd5b506105f86004803603602081101561055557600080fd5b810190808035906020019064010000000081111561057257600080fd5b82018360208201111561058457600080fd5b803590602001918460018302840111640100000000831117156105a657600080fd5b91908080601f016020809104026020016040519081016040528093929190818152602001838380828437600081840152601f19601f82011690508083019250505050505050919291929050505061160f565b005b34801561060657600080fd5b5061060f611b33565b604051808215151515815260200191505060405180910390f35b34801561063557600080fd5b5061063e611b57565b6040518080602001828103825283818151815260200191508051906020019080838360005b8381101561067e578082015181840152602081019050610663565b50505050905090810190601f1680156106ab5780820380516001836020036101000a031916815260200191505b509250505060405180910390f35b3480156106c557600080fd5b50610708600480360360208110156106dc57600080fd5b81019080803573ffffffffffffffffffffffffffffffffffffffff169060200190929190505050611bf5565b005b6107126113be565b610784576040517f08c379a00000000000000000000000000000000000000000000000000000000081526004018080602001828103825260208152602001807f4f776e61626c653a2063616c6c6572206973206e6f7420746865206f776e657281525060200191505060405180910390fd5b6000600281905550565b610796611b33565b15610809576040517f08c379a00000000000000000000000000000000000000000000000000000000081526004018080602001828103825260148152602001807f47616d65206973206e6f742072756e6e696e672e00000000000000000000000081525060200191505060405180910390fd5b6006600160405180828054600181600116156101000203166002900480156108685780601f10610846576101008083540402835291820191610868565b820191906000526020600020905b815481529060010190602001808311610854575b5050915050908152602001604051809103902060009054906101000a900473ffffffffffffffffffffffffffffffffffffffff1673ffffffffffffffffffffffffffffffffffffffff163373ffffffffffffffffffffffffffffffffffffffff161461093c576040517f08c379a000000000000000000000000000000000000000000000000000000000815260040180806020018281038252601e8152602001807f596f75277265206e6f7420686f6c64696e672074686520706f7461746f2e000081525060200191505060405180910390fd5b6005543411610996576040517f08c379a0000000000000000000000000000000000000000000000000000000008152600401808060200182810382526033815260200180611fb16033913960400191505060405180910390fd5b60006006826040518082805190602001908083835b602083106109ce57805182526020820191506020810190506020830392506109ab565b6001836020036101000a038019825116818451168082178552505050505050905001915050908152602001604051809103902060009054906101000a900473ffffffffffffffffffffffffffffffffffffffff169050600073ffffffffffffffffffffffffffffffffffffffff168173ffffffffffffffffffffffffffffffffffffffff161415610ac7576040517f08c379a000000000000000000000000000000000000000000000000000000000815260040180806020018281038252600f8152602001807f556e6b6e6f776e20706c617965722e000000000000000000000000000000000081525060200191505060405180910390fd5b348173ffffffffffffffffffffffffffffffffffffffff163111610b36576040517f08c379a0000000000000000000000000000000000000000000000000000000008152600401808060200182810382526033815260200180611f386033913960400191505060405180910390fd5b3073ffffffffffffffffffffffffffffffffffffffff16316005819055508160019080519060200190610b6a929190611dbf565b5033600360016101000a81548173ffffffffffffffffffffffffffffffffffffffff021916908373ffffffffffffffffffffffffffffffffffffffff160217905550600760003373ffffffffffffffffffffffffffffffffffffffff1673ffffffffffffffffffffffffffffffffffffffff16815260200190815260200160002060049080546001816001161561010002031660029004610c0c929190611e3f565b507fc98593218a6c09dcc8a847dd0b975789ad51086c1d5566c2f471eda66964bb0982346040518080602001838152602001828103825284818151815260200191508051906020019080838360005b83811015610c76578082015181840152602081019050610c5b565b50505050905090810190601f168015610ca35780820380516001836020036101000a031916815260200191505b50935050505060405180910390a15050565b60076020528060005260406000206000915090508054600181600116156101000203166002900480601f016020809104026020016040519081016040528092919081815260200182805460018160011615610100020316600290048015610d5d5780601f10610d3257610100808354040283529160200191610d5d565b820191906000526020600020905b815481529060010190602001808311610d4057829003601f168201915b505050505081565b60025481565b610d73611b33565b610de5576040517f08c379a00000000000000000000000000000000000000000000000000000000081526004018080602001828103825260188152602001807f5468652067616d652069736e2774206f766572207965742e000000000000000081525060200191505060405180910390fd5b600073ffffffffffffffffffffffffffffffffffffffff16600360019054906101000a900473ffffffffffffffffffffffffffffffffffffffff1673ffffffffffffffffffffffffffffffffffffffff161415610eaa576040517f08c379a00000000000000000000000000000000000000000000000000000000081526004018080602001828103825260208152602001807f5468657265206973206e6f742063757272656e746c7920612077696e6e65722e81525060200191505060405180910390fd5b600360019054906101000a900473ffffffffffffffffffffffffffffffffffffffff1673ffffffffffffffffffffffffffffffffffffffff163373ffffffffffffffffffffffffffffffffffffffff1614610f50576040517f08c379a0000000000000000000000000000000000000000000000000000000008152600401808060200182810382526024815260200180611f6b6024913960400191505060405180910390fd5b600860009054906101000a900460ff1615610fd3576040517f08c379a00000000000000000000000000000000000000000000000000000000081526004018080602001828103825260168152602001807f5072697a6520616c726561647920636c61696d65642e0000000000000000000081525060200191505060405180910390fd5b6001600860006101000a81548160ff02191690831515021790555060003073ffffffffffffffffffffffffffffffffffffffff163190507f62e8f0e8f59cc62672b667a64b03e3523c4ae789f56f5291bf467bfa2672b7ac60076000600360019054906101000a900473ffffffffffffffffffffffffffffffffffffffff1673ffffffffffffffffffffffffffffffffffffffff1673ffffffffffffffffffffffffffffffffffffffff16815260200190815260200160002082604051808060200183815260200182810382528481815460018160011615610100020316600290048152602001915080546001816001161561010002031660029004801561111c5780601f106110f15761010080835404028352916020019161111c565b820191906000526020600020905b8154815290600101906020018083116110ff57829003601f168201915b5050935050505060405180910390a1600360019054906101000a900473ffffffffffffffffffffffffffffffffffffffff1673ffffffffffffffffffffffffffffffffffffffff166108fc829081150290604051600060405180830381858888f19350505050158015611193573d6000803e3d6000fd5b5050565b600360009054906101000a900460ff1681565b6111b26113be565b611224576040517f08c379a00000000000000000000000000000000000000000000000000000000081526004018080602001828103825260208152602001807f4f776e61626c653a2063616c6c6572206973206e6f7420746865206f776e657281525060200191505060405180910390fd5b600073ffffffffffffffffffffffffffffffffffffffff166000809054906101000a900473ffffffffffffffffffffffffffffffffffffffff1673ffffffffffffffffffffffffffffffffffffffff167f8be0079c531659141344cd1fd0a4f28419497f9722a3daafe3b4186f6b6457e060405160405180910390a360008060006101000a81548173ffffffffffffffffffffffffffffffffffffffff021916908373ffffffffffffffffffffffffffffffffffffffff160217905550565b60003073ffffffffffffffffffffffffffffffffffffffff1631905090565b61130a6113be565b61137c576040517f08c379a00000000000000000000000000000000000000000000000000000000081526004018080602001828103825260208152602001807f4f776e61626c653a2063616c6c6572206973206e6f7420746865206f776e657281525060200191505060405180910390fd5b3373ffffffffffffffffffffffffffffffffffffffff16ff5b60008060009054906101000a900473ffffffffffffffffffffffffffffffffffffffff16905090565b60008060009054906101000a900473ffffffffffffffffffffffffffffffffffffffff1673ffffffffffffffffffffffffffffffffffffffff163373ffffffffffffffffffffffffffffffffffffffff1614905090565b61141d6113be565b61148f576040517f08c379a00000000000000000000000000000000000000000000000000000000081526004018080602001828103825260208152602001807f4f776e61626c653a2063616c6c6572206973206e6f7420746865206f776e657281525060200191505060405180910390fd5b600360009054906101000a900460ff1615611512576040517f08c379a00000000000000000000000000000000000000000000000000000000081526004018080602001828103825260198152602001807f47616d652068617320616c726561647920737461727465642e0000000000000081525060200191505060405180910390fd5b42811161156a576040517f08c379a0000000000000000000000000000000000000000000000000000000008152600401808060200182810382526022815260200180611fe46022913960400191505060405180910390fd5b6001600360006101000a81548160ff021916908315150217905550806002819055507f50ad08f58a27f2851d7e3a1b3a6a46b290f2ce677e99642d30ff639721e77790816040518082815260200191505060405180910390a150565b6006818051602081018201805184825260208301602085012081835280955050505050506000915054906101000a900473ffffffffffffffffffffffffffffffffffffffff1681565b600360009054906101000a900460ff161580611630575061162e611b33565b155b6116a2576040517f08c379a000000000000000000000000000000000000000000000000000000000815260040180806020018281038252600f8152602001807f47616d652068617320656e6465642e000000000000000000000000000000000081525060200191505060405180910390fd5b600073ffffffffffffffffffffffffffffffffffffffff166006826040518082805190602001908083835b602083106116f057805182526020820191506020810190506020830392506116cd565b6001836020036101000a038019825116818451168082178552505050505050905001915050908152602001604051809103902060009054906101000a900473ffffffffffffffffffffffffffffffffffffffff1673ffffffffffffffffffffffffffffffffffffffff16146117b0576040517f08c379a0000000000000000000000000000000000000000000000000000000008152600401808060200182810382526022815260200180611f8f6022913960400191505060405180910390fd5b6060819050600081511161182c576040517f08c379a00000000000000000000000000000000000000000000000000000000081526004018080602001828103825260208152602001807f52656769737465726564206e616d652063616e6e6f7420626520626c616e6b2e81525060200191505060405180910390fd5b6060600760003373ffffffffffffffffffffffffffffffffffffffff1673ffffffffffffffffffffffffffffffffffffffff1681526020019081526020016000208054600181600116156101000203166002900480601f0160208091040260200160405190810160405280929190818152602001828054600181600116156101000203166002900480156119015780601f106118d657610100808354040283529160200191611901565b820191906000526020600020905b8154815290600101906020018083116118e457829003601f168201915b505050505090506000815114611962576040517f08c379a0000000000000000000000000000000000000000000000000000000008152600401808060200182810382526026815260200180611eec6026913960400191505060405180910390fd5b336006846040518082805190602001908083835b602083106119995780518252602082019150602081019050602083039250611976565b6001836020036101000a038019825116818451168082178552505050505050905001915050908152602001604051809103902060006101000a81548173ffffffffffffffffffffffffffffffffffffffff021916908373ffffffffffffffffffffffffffffffffffffffff16021790555082600760003373ffffffffffffffffffffffffffffffffffffffff1673ffffffffffffffffffffffffffffffffffffffff1681526020019081526020016000209080519060200190611a5d929190611dbf565b507f8cf6c9dc5b0de75cf4570c20b0f30845b692c7e05dfaecbb82096af4e2c2317d833360405180806020018373ffffffffffffffffffffffffffffffffffffffff1673ffffffffffffffffffffffffffffffffffffffff168152602001828103825284818151815260200191508051906020019080838360005b83811015611af3578082015181840152602081019050611ad8565b50505050905090810190601f168015611b205780820380516001836020036101000a031916815260200191505b50935050505060405180910390a1505050565b6000600360009054906101000a900460ff168015611b52575060025442115b905090565b60018054600181600116156101000203166002900480601f016020809104026020016040519081016040528092919081815260200182805460018160011615610100020316600290048015611bed5780601f10611bc257610100808354040283529160200191611bed565b820191906000526020600020905b815481529060010190602001808311611bd057829003601f168201915b505050505081565b611bfd6113be565b611c6f576040517f08c379a00000000000000000000000000000000000000000000000000000000081526004018080602001828103825260208152602001807f4f776e61626c653a2063616c6c6572206973206e6f7420746865206f776e657281525060200191505060405180910390fd5b611c7881611c7b565b50565b600073ffffffffffffffffffffffffffffffffffffffff168173ffffffffffffffffffffffffffffffffffffffff161415611d01576040517f08c379a0000000000000000000000000000000000000000000000000000000008152600401808060200182810382526026815260200180611f126026913960400191505060405180910390fd5b8073ffffffffffffffffffffffffffffffffffffffff166000809054906101000a900473ffffffffffffffffffffffffffffffffffffffff1673ffffffffffffffffffffffffffffffffffffffff167f8be0079c531659141344cd1fd0a4f28419497f9722a3daafe3b4186f6b6457e060405160405180910390a3806000806101000a81548173ffffffffffffffffffffffffffffffffffffffff021916908373ffffffffffffffffffffffffffffffffffffffff16021790555050565b828054600181600116156101000203166002900490600052602060002090601f016020900481019282601f10611e0057805160ff1916838001178555611e2e565b82800160010185558215611e2e579182015b82811115611e2d578251825591602001919060010190611e12565b5b509050611e3b9190611ec6565b5090565b828054600181600116156101000203166002900490600052602060002090601f016020900481019282601f10611e785780548555611eb5565b82800160010185558215611eb557600052602060002091601f016020900482015b82811115611eb4578254825591600101919060010190611e99565b5b509050611ec29190611ec6565b5090565b611ee891905b80821115611ee4576000816000905550600101611ecc565b5090565b9056fe4164647265737320616c72656164792068617320612072656769737465726564206e616d652e4f776e61626c653a206e6577206f776e657220697320746865207a65726f2061646472657373506c6179657220776f756c6420626520737475636b207769746820706f7461746f2c20616e6420746861742773206d65616e2e4f6e6c79207468652077696e6e65722063616e206765742074686520726577617264732e506c61796572206e616d6520697320616c726561647920726567697374657265642e596f75206469646e27742073656e6420656e6f75676820657468657220746f20676574206f766572207468652066656e63652e456e64696e672074696d65206d75737420626520696e20746865206675747572652ea165627a7a72305820002aa032580e724588a24ff7154e661ca9e3b38b0aa67dd936e2cd830e5f10eb00294164647265737320616c72656164792068617320612072656769737465726564206e616d652e506c61796572206e616d6520697320616c726561647920726567697374657265642e",
  "source": "pragma solidity ^0.5.0;\n\nimport \"openzeppelin-solidity/contracts/ownership/Ownable.sol\";\n\n\ncontract HotPotato is Ownable {\n  string public holder;\n  uint256 public gameEndAt;\n  bool public gameStarted;\n  address payable _winnerAddr;\n  string _winnerName;\n  uint256 _oldBalance; // prevent race condition\n  mapping(string => address) public players;\n  mapping(address => string) public playerNames;\n  bool _prizeClaimed;\n\n  event GameStarted(uint256 endAt);\n  event PlayerRegistered(string playerName, address playerAddress);\n  event PotatoThrown(string playerName, uint256 value);\n  event WinnerClaimedPrize(string playerName, uint256 value);\n\n  constructor(string memory playerName) public {\n    registerPlayer(playerName);\n    holder = playerName;\n  }\n\n  function start(uint256 _endAt)\n    public\n    onlyOwner\n  {\n    require(!gameStarted, \"Game has already started.\");\n    require(_endAt > block.timestamp, \"Ending time must be in the future.\"); // solium-disable-line security/no-block-members\n\n    gameStarted = true;\n    gameEndAt = _endAt;\n\n    emit GameStarted(_endAt);\n  }\n\n  function registerPlayer(string memory _playerName) public {\n    require((!gameStarted || !gameOver()), \"Game has ended.\");\n    require(players[_playerName] == address(0), \"Player name is already registered.\");\n\n    bytes memory givenPlayerNameBytes = bytes(_playerName);\n    require(givenPlayerNameBytes.length > 0, \"Registered name cannot be blank.\");\n\n    bytes memory existingPlayerNameBytes = bytes(playerNames[msg.sender]);\n    require(existingPlayerNameBytes.length == 0, \"Address already has a registered name.\");\n\n    players[_playerName] = msg.sender;\n    playerNames[msg.sender] = _playerName;\n\n    emit PlayerRegistered(_playerName, msg.sender);\n  }\n\n  function throwPotato(string memory _recipientName)\n    public\n    payable\n  {\n    require(!gameOver(), \"Game is not running.\");\n    require(msg.sender == players[holder], \"You're not holding the potato.\");\n    require(msg.value > _oldBalance, \"You didn't send enough ether to get over the fence.\");\n\n    address recipientAddr = players[_recipientName];\n    require(recipientAddr != address(0), \"Unknown player.\");\n    require(recipientAddr.balance > msg.value, \"Player would be stuck with potato, and that's mean.\");\n\n    _oldBalance = address(this).balance;\n    holder = _recipientName;\n    _winnerAddr = msg.sender;\n    _winnerName = playerNames[msg.sender];\n\n    emit PotatoThrown(_recipientName, msg.value);\n  }\n\n  function gameOver() public view returns (bool) {\n    return gameStarted && block.timestamp > gameEndAt; // solium-disable-line security/no-block-members\n  }\n\n  function claim()\n    public\n  {\n    require(gameOver(), \"The game isn't over yet.\");\n    require(_winnerAddr != address(0), \"There is not currently a winner.\");\n    require(msg.sender == _winnerAddr, \"Only the winner can get the rewards.\");\n    require(!_prizeClaimed, \"Prize already claimed.\");\n\n    _prizeClaimed = true;\n\n    uint256 jackpot = address(this).balance;\n\n    emit WinnerClaimedPrize(playerNames[_winnerAddr], jackpot);\n\n    _winnerAddr.transfer(jackpot);\n  }\n\n  function stop()\n    public\n    onlyOwner\n  {\n    gameEndAt = 0;\n  }\n\n  function kaboom()\n    public\n    onlyOwner\n  {\n    selfdestruct(msg.sender);\n  }\n\n  function fenceHeight() public view returns(uint) {\n    return address(this).balance;\n  }\n}\n",
  "sourcePath": "/Users/jmcnevin/Source/BlockchainWorkshop/contracts/HotPotato.sol",
  "compiler": {
    "name": "solc",
    "version": "0.5.8+commit.23d335f2.Emscripten.clang"
  },
  "schemaVersion": "3.0.10",
  "updatedAt": "2019-06-14T18:19:32.031Z",
  "devdoc": {
    "methods": {
      "isOwner()": {
        "details": "Returns true if the caller is the current owner."
      },
      "owner()": {
        "details": "Returns the address of the current owner."
      },
      "renounceOwnership()": {
        "details": "Leaves the contract without owner. It will not be possible to call `onlyOwner` functions anymore. Can only be called by the current owner.     * > Note: Renouncing ownership will leave the contract without an owner, thereby removing any functionality that is only available to the owner."
      },
      "transferOwnership(address)": {
        "details": "Transfers ownership of the contract to a new account (`newOwner`). Can only be called by the current owner."
      }
    }
  },
  "userdoc": {
    "methods": {}
  }
}